:020000040800F2
:1000000010100020050100080D030008050300087A
:1000100009030008AB0100086D040008000000009F
:100020000000000000000000000000005104000873
:10003000AF010008000000000F030008550400088D
:100040001B0100081B0100081B0100081B01000820
:100050001B0100081B0100081B0100081B01000810
:100060001B0100081B0100081B0100081B01000800
:100070001B0100081B0100081B0100081B010008F0
:100080001B0100081B0100081B0100081B010008E0
:100090001B0100081B0100081B0100081B010008D0
:1000A0001B0100081B0100081B0100081B010008C0
:1000B0001B0100081B0100081B0100081B010008B0
:1000C0001B0100081B0100081B0100081B010008A0
:1000D0001B0100081B0100081B0100081B01000890
:1000E0001B0100081B0100081B010008DFF810D0ED
:1000F00000F016F80048004791040008AFF30080B4
:100100001010002005480047FEE7FEE7FEE7FEE787
:10011000FEE7FEE7FEE7FEE7FEE7FEE7ED0000088C
:10012000064C074D06E0E06840F0010394E8070044
:1001300098471034AC42F6D3FFF7DCFFF404000814
:100140001405000810B5012000F032F8022000F07C
:100150003DF84FF4803000F01DF900BF312000F071
:10016000E7F80028FAD04FF4E0114FF4803000F0A7
:1001700055F9012000F04CF900BF392000F0D8F803
:100180000028FAD0002000F0F9F84FF4806000F069
:1001900027F9002000F030F9022000F04DF900BFEF
:1001A00000F0E4F80828FBD110BD00BFFEE770475F
:1001B0000549096821F01001034A116011460968D8
:1001C00001431160704700000020024001460020FA
:1001D000034A106800F038000843106070470000C0
:1001E000002002402DE9F0410246002500260020B3
:1001F00000230024002791F803C00CF00F0591F8AC
:1002000003C00CF0100CBCF1000F03D091F802C039
:100210004CEA050591F800C0BCF1000F31D014681C
:1002200000202BE04FF0010C0CFA00F3B1F800C0F5
:100230000CEA03069E4220D183004FF00F0C0CFA0B
:1002400003F7BC4305FA03FC4CEA040491F803C02D
:10025000BCF1280F06D14FF0010C0CFA00FCC2F8DB
:1002600014C00AE091F803C0BCF1480F05D14FF06B
:10027000010C0CFA00FCC2F810C0401C0828D1D3B5
:100280001460B1F800C0BCF1FF0F34DD54680020E9
:100290002EE000F1080C4FF0010808FA0CF3B1F859
:1002A00000C00CEA03069E4221D183004FF00F0CE0
:1002B0000CFA03F7BC4305FA03FC4CEA040491F87A
:1002C00003C0BCF1280F05D100F1080C08FA0CF8A6
:1002D000C2F8148091F803C0BCF1480F07D100F1B7
:1002E000080C4FF0010808FA0CF8C2F81080401C06
:1002F0000828CED35460BDE8F0810AB1016100E066
:100300004161704700BFFEE700BFFEE770477047DE
:1003100029B1064A92690243044B9A6104E0034AF8
:1003200092698243014B9A617047000000100240BD
:1003300010B501460022002300204A11012A02D1F3
:10034000094C236806E0022A02D1074C236A01E027
:10035000054C636A01F01F02012494401C400CB15B
:10036000012000E0002010BD00100240024840685B
:1003700000F00C0070470000001002400146002011
:10038000034A506820F0F0000843506070470000B6
:10039000001002401149096821F480310F4A1160B0
:1003A0001146096821F480211160B0F5803F03D027
:1003B000B0F5802F0ED106E00849096841F480317C
:1003C000064A116007E00549096841F4A021034A83
:1003D000116000E000BF00BF704700000010024045
:1003E00001460020034A506820F4E0600843506052
:1003F000704700000010024001460020034A506888
:1004000020F4605040EAC100506070470010024084
:100410000149086670470000000042420246002081
:10042000044B586820F47C1042EA01031843014B46
:10043000586070470010024001460020034A50688F
:1004400020F0030008435060704700000010024095
:10045000704700000448036840685A1C40F10000DF
:1004600001490A60486070470000002000BFFEE7B5
:1004700002E008C8121F08C1002AFAD1704770476D
:10048000002001E001C1121F002AFBD170470000CB
:1004900008B5FFF757FE01211020FFF739FF1420A0
:1004A0008DF803004FF40050ADF8000002208DF8E5
:1004B000020069460D48FFF795FE16E000224FF452
:1004C00000510A48FFF719FF002000E0401C0849CE
:1004D0008842FBD3012251030448FFF70EFF00209E
:1004E00000E0401C02498842FBD3E7E700100140CE
:1004F0002A2C0A0014050008000000200C0000004F
:1005000070040008200500080C0000200410000002
:10051000800400080000000000000000000000004F
:04000005080000ED02
:00000001FF
