:020000040800F2
:100000006020002005010008390B00088F09000856
:1000100093090008A7060008F1110008000000007D
:10002000000000000000000000000000C10F0008F8
:10003000AB06000800000000CB0E00087911000894
:100040001F0100081F0100081F0100081F01000810
:100050001F0100081F0100081F0100081F01000800
:100060001F0100081F0100081F0100081F010008F0
:100070001F0100081F0100081F0100081F010008E0
:100080001F0100081F0100081F0100081F010008D0
:100090001F0100081F0100081F0100081F010008C0
:1000A0001F0100081F0100081F0100081F010008B0
:1000B0001F0100081F0100081F0100081F010008A0
:1000C0001F0100081F0100081F0100081F01000890
:1000D0001F0100081F0100081F0100081F01000880
:1000E0001F0100081F0100081F010008DFF810D0E1
:1000F00000F062FA004800471D130008AFF30080CB
:10010000602000200648804706480047FEE7FEE7DB
:10011000FEE7FEE7FEE7FEE7FEE7FEE7FEE7FEE7B7
:1001200091110008ED000008D2B201E000F8012BA7
:10013000491EFBD270470022F6E710B513460A4667
:1001400004461946FFF7F0FF204610BD2DE9FE4F8B
:10015000804681EA0300C00F0C46009021F0004168
:1001600023F00045B8EB0200A94105D240462146E4
:1001700090461C460B46024623F00040104347D0F1
:10018000270DC7F30A00C3F30A510290401A0190E9
:1001900040286BDAC3F3130040F4801B00989246AA
:1001A00020B10023D2EB030A63EB0B0B01985946F5
:1001B000C0F14002504600F021F906460D46504677
:1001C0005946019A00F039F910EB0800614100240A
:1001D00087EA115284EAE7731A4340D0009A62B367
:1001E000019A012A4FEA075215DC001B61EB02015C
:1001F0004FF0004202EA0752CDE90042001C41F5EF
:10020000801132462B4600F070F903B0BDE8F08F44
:1002100040462146F9E7001B61EB0201001C41F555
:10022000801300185B412018A2F5001747EB03016B
:1002300040EAD570B6196D4111E06D084FEA3606F7
:1002400045EAC0754FEA0752001B61EB0201001C32
:1002500041F5801149084FEA3000001951413246FA
:100260002B4603B0BDE8F04F00F030B900980122F2
:1002700040000023D0EB020263EBE07300982146BC
:100280004FEAE074B8EB000061EB0401E9E783F0AA
:1002900000435BE781F0004158E72DE9F04D81EA2A
:1002A000030404F0004B21F0004514464FF0000A0F
:1002B00023F0004150EA050220D054EA01021DD08B
:1002C000C5F30A570246C5F31303C1F31300C1F384
:1002D0000A5640F4801543F48013A7EB0608101B60
:1002E000D64608F2FD3873EB050002D308F1010889
:1002F00001E092185B41B8F1000F03DA00200146DB
:10030000BDE8F08D00204FF48011064684460EE0D3
:10031000171B73EB050705D3121B63EB050306439D
:100320004CEA010C49084FEA300092185B4150EA50
:100330000107EDD152EA030012D082EA040083EAF9
:100340000501084305D0101BAB4106D20122002352
:1003500006E000224FF0004302E06FF0010253106C
:100360001AEB06004CEB085110EB0A0041EB0B01B5
:10037000BDE8F04D00F0AAB80EB540F2334102914D
:100380000021CDE900110A460B4600F0AEF803B09B
:1003900000BDC1F30A5210B5C1F3130140F2FF339F
:1003A00041F480119A4201DA002010BD40F233433B
:1003B0009A42A2F2334203DC524200F02EF810BD02
:1003C000904010BD01F0004330B421F0004150EAEC
:1003D000010206D00A0DA2F56072C1F31301002AD2
:1003E00002DC30BC00207047440F44EAC104C10065
:1003F000E01830BC00EBC25000F031B8202A04DB1A
:10040000203A00FA02F1002070479140C2F1200327
:1004100020FA03F3194390407047202A04DB203A66
:1004200021FA02F00021704721FA02F3D040C2F114
:1004300020029140084319467047202A06DBCB175B
:10044000203A41FA02F043EAE07306E041FA02F38F
:10045000D040C2F12002914008431946704700295C
:10046000A8BF7047401C490008BF20F0010070473A
:1004700010B4B0FA80FC00FA0CF050EA010404BF9A
:1004800010BC704749B1CCF1200421FA04F411FAF0
:100490000CF118BF012121430843A3EB0C01CB1D34
:1004A0004FEA00614FEA102042BF002010BC7047A5
:1004B00000EBC35010440029A4BF10BC7047401C7F
:1004C000490008BF20F0010010BC704710B5141E91
:1004D00073F1000408DA401C41F1000192185B41FD
:1004E0001A4301D120F0010010BD2DE9F04D9246D4
:1004F0009B4611B1B1FA81F202E0B0FA80F22032EB
:100500009046FFF77BFF04460F4640EA0A0041EAA7
:100510000B0153465A46084313D0114653EA0100D3
:1005200019D0C8F140025046FFF777FF05460E4646
:10053000504659464246FFF761FF084305D0012067
:1005400004E020463946BDE8F08D0020054346EA28
:10055000E0762C4337430A986305E40AA0EB0800D1
:100560000022FD0A44EA47540A3002D50020014621
:10057000E9E7010510196941DDE9084500196941FC
:10058000BDE8F04DA2E7000030B5041E71F1000493
:1005900004DB4FF00044404264EB0101141E73F190
:1005A000000405DB1C464FF00043524263EB04039A
:1005B000994208BF904230BD064C074D06E0E06806
:1005C00040F0010394E8070098471034AC42F6D39A
:1005D000FFF790FD5035000870350008F0B5837BBB
:1005E00003B9F0BD002901DB802900DBF9E7002A0F
:1005F00001DB402A00DBF4E7438BBBB1838BABB15B
:10060000B0F916308B4205DCB0F91630448B234428
:100610008B4200DCE5E7B0F91830934205DCB0F915
:100620001830848B2344934200DCDAE7837B012B70
:100630001CD1D51702EB5575ED1001EBC5154668B9
:10064000755D1446D61702EB5676F610A2EBC60778
:100650000126BE403543EEB21346D51702EB557561
:10066000ED1001EBC51547687E551AE0D51702EB72
:100670005575ED1001EBC5154668755D1446D61726
:1006800002EB5676F610A2EBC6070126BE40B54334
:100690001346D61702EB5676F61001EBC6164768DE
:1006A000BD5500BF9DE700BFFEE7704770B504462B
:1006B00000F00EF8054800680519002600BF034841
:1006C00000680021401BB141F9D370BD1400002027
:1006D0002DE9F04186B02E480078002855D1012040
:1006E0002B490870142101A8FFF725FD4FF0E020E9
:1006F000006920F001004FF0E02108610020254949
:10070000086001A800F0F2FB4FF0E020006940F023
:1007100002004FF0E021086100211F48C1774FF42B
:100720007A710298B0FBF1F4B4F1807F09D3E40848
:100730004FF0E020006920F004004FF0E021086154
:1007400007E04FF0E020006940F004004FF0E021A6
:100750000861601E4FF0E02148610846006940F0E2
:1007600001000861496921F07F41481CFFF704FE40
:1007700007463A460B4600200849FFF78EFD05461E
:10078000FFF720FE0649086000BF06B0BDE8F08113
:10079000180000201400002000ED00E000408F4011
:1007A0001C0000202DE9F04F87B005460F4690460B
:1007B0009946A87B20B9287B10B907B0BDE8F08F17
:1007C00095F80DA0012068734846FFF7D5FD00227B
:1007D000214BCDE90001FFF760FDCDE9020100F0FA
:1007E00019FDCDE90401FFF7D4FD1FFA80FB0024B9
:1007F0002CE0002625E0E21704EB5272D21006FB33
:100800000B23119AD25CE31704EB5373DB10A4EBB8
:10081000C30C802343FA0CF31A4042B108EB0600E4
:1008200002B2381901B2284600F0FFFA07E008EBDF
:10083000060002B2381901B22846FFF7CFFE701C3D
:1008400006B210988642D6DB601C04B24C45D0DB61
:1008500085F80DA000BFB0E7000020402DE9F04171
:10086000024600250026002000230024002791F8DE
:1008700003C00CF00F0591F803C00CF0100CBCF194
:10088000000F03D091F802C04CEA050591F800C0B2
:10089000BCF1000F31D0146800202BE04FF0010CA8
:1008A0000CFA00F3B1F800C00CEA03069E4220D116
:1008B00083004FF00F0C0CFA03F7BC4305FA03FC5E
:1008C0004CEA040491F803C0BCF1280F06D14FF0A4
:1008D000010C0CFA00FCC2F814C00AE091F803C045
:1008E000BCF1480F05D14FF0010C0CFA00FCC2F826
:1008F00010C0401C0828D1D31460B1F800C0BCF16E
:10090000FF0F34DD546800202EE000F1080C4FF09A
:10091000010808FA0CF3B1F800C00CEA03069E4285
:1009200021D183004FF00F0C0CFA03F7BC4305FAFA
:1009300003FC4CEA040491F803C0BCF1280F05D174
:1009400000F1080C08FA0CF8C2F8148091F803C002
:10095000BCF1480F07D100F1080C4FF0010808FA6C
:100960000CF8C2F81080401C0828CED35460BDE8B3
:10097000F0810246002093680B400BB1012000E09B
:10098000002070470AB1016100E04161704700BF7B
:10099000FEE700BFFEE7000008B503480090694687
:1009A000024800F0E5F808BD0113000838000020F7
:1009B00038B5044635492068884204D10121042015
:1009C00000F084FA19E032492068884204D10121FC
:1009D000082000F07BFA10E02E492068884204D1FC
:1009E0000121102000F072FA07E02B4920688842AC
:1009F00003D10121202000F069FAA1890122A06819
:100A0000FFF7C0FFA18801222068FFF7BBFF1F4945
:100A1000A068884204D10121042000F057FA19E0AF
:100A20001B49A068884204D10121082000F04EFA39
:100A300010E01849A068884204D10121102000F07C
:100A400045FA07E01449A068884203D1012120201B
:100A500000F03CFAA088ADF8000014208DF80300E7
:100A600002208DF8020069462068FFF7F7FEA08992
:100A7000ADF8000014208DF8030002208DF802006C
:100A80006946A068FFF7EAFE38BD00000008014093
:100A9000000C014000100140001401402DE9F0411C
:100AA00004460E4617469846A1890122A068FFF722
:100AB00069FFA18801222068FFF764FFA189002255
:100AC000A068FFF75FFF012000F012FC06F0FE01B6
:100AD000204600F076FA30B1204600F0B5FA4FF02B
:100AE000FF30BDE8F08100250CE0795D204600F084
:100AF00068FA28B1204600F0A7FA6FF00100F0E78D
:100B0000681C85B24545F0DB204600F09DFA0020C8
:100B1000E7E7000010B506480649086040208880D5
:100B200003488860802088810846FFF741FF10BD98
:100B3000000C014028000020704710B504464FF417
:100B400080616068FFF7F7FA10BD2DE9FC410446AB
:100B50000D4616461F46CDE90067B4F91220B4F9D8
:100B600010102B462046FFF71DFEBDE8FC8100005B
:100B700038B504460D462868206040F2014000F078
:100B800003FC6060606810B96FF0010038BD6068F8
:100B9000401C60604FF480616068FFF7CCFA00236E
:100BA0001A46AE21204600F004F910B14FF0FF3094
:100BB000ECE78020009001236A46D521204600F012
:100BC000F8F810B14FF0FF30E0E73F20009001232C
:100BD0006A46A821204600F0ECF810B14FF0FF3033
:100BE000D4E70020009001236A46D321204600F07C
:100BF000E0F810B14FF0FF30C8E700231A4640215B
:100C0000204600F0D6F810B14FF0FF30BEE71420B8
:100C1000009001236A468D21204600F0CAF810B1E9
:100C20004FF0FF30B2E70020009001236A462021F8
:100C3000204600F0BEF810B14FF0FF30A6E70023C9
:100C40001A46A121204600F0B4F810B14FF0FF3051
:100C50009CE700231A46C821204600F0AAF810B1EC
:100C60004FF0FF3092E71220009001236A46DA210C
:100C7000204600F09EF810B14FF0FF3086E7CF20FD
:100C8000009001236A468121204600F092F810B1BD
:100C90004FF0FF307AE7F120009001236A46D92116
:100CA000204600F086F810B14FF0FF306EE72020AC
:100CB000009001236A46DB21204600F07AF810B14B
:100CC0004FF0FF3062E700231A462E21204600F045
:100CD00070F810B14FF0FF3058E700231A46A421F6
:100CE000204600F066F810B14FF0FF304EE70023C9
:100CF0001A46A621204600F05CF810B14FF0FF30F4
:100D000044E700231A46AF21204600F052F810B104
:100D10004FF0FF303AE70120607320730020A0738A
:100D200020826082A082E08320846084A0840248C4
:100D3000A06000202AE70000BC31000838B5044656
:100D400000208DF8000001236A462021204600F093
:100D500030F810B14FF0FF3038BD00208DF80000A2
:100D60007F208DF8010002236A462121204600F0F1
:100D700020F810B14FF0FF30EEE700208DF80000B2
:100D800007208DF8010002236A462221204600F048
:100D900010F810B14FF0FF30DEE74FF480622046CC
:100DA000616800F027F810B14FF0FF30D4E7002061
:100DB000D2E72DE9FC4105460E461746984600202D
:100DC0008DF800008DF80160002405E0395DA01C5D
:100DD0000DF80010601CC4B24445F7DBA21C694644
:100DE00078202B68984718B14FF0FF30BDE8FC81A0
:100DF0000020FBE72DE9F04105460C46164600278A
:100E000014F8018C402004F8010C701C82B2611EA1
:100E100078202B68984700B17F1E04F8018C384673
:100E2000BDE8F0810182428270472DE9FC5F0446F3
:100E30008A469346207B08B9BDE8FC9F607B00B9D9
:100E4000FAE7607B00EBD0714910A0EB410139B1AA
:100E5000607B00EBD0714D102E462F46A8460CE06B
:100E6000607B00EBD0714D102E462F46A846A8F1AE
:100E700001001FFA80F8781E87B2A07B0190207BCA
:100E8000A073AAEB08000FFA80F916E0ABEB07009D
:100E900000B2009008E049462046009AFFF79EFB0A
:100EA0000098401C00B200900BEB060100988142B4
:100EB000F1DA09F101000FFA80F90AEB0500484563
:100EC000E4DA0198A07300BFB6E7704729B1064A7B
:100ED00092690243044B9A6104E0034A9269824397
:100EE000014B9A61704700000010024030B50021AC
:100EF0000022002400232D4D6D6805F00C0121B166
:100F0000042905D0082923D105E0294D056022E0F8
:100F1000274D05601FE0254D6D6805F47012234DC7
:100F20006D6805F48034022505EB92421CB9214D11
:100F3000554305600BE01D4D6D6805F400351DB18E
:100F40001C4D5543056002E0194D5543056002E014
:100F5000174D056000BF00BF144D6D6805F0F0012E
:100F60000909154D6B5C0568DD4045600F4D6D68E6
:100F700005F4E061090A104D6B5C4568DD40856051
:100F80000A4D6D6805F46051C90A0B4D6B5C4568EC
:100F9000DD40C560054D6D6805F44041890B074D86
:100FA0006B5CC568B5FBF3F5056130BD0010024010
:100FB00000127A0000093D0000000020100000200F
:100FC000704770B504460E4607251DE0A188002233
:100FD0002068FFF7D7FC0123AB4033400BB101235E
:100FE00000E000231A46A189A068FFF7CBFC02208D
:100FF00000F07EF9A18801222068FFF7C3FC0220DF
:1010000000F076F9681E45B2002DDFDAA1880022D3
:101010002068FFF7B7FCA1890122A068FFF7B2FCA6
:10102000022000F065F9A18801222068FFF7AAFCE0
:10103000022000F05DF9A189A068FFF79AFC012861
:1010400000D170BD0020FCE710B50446A188002245
:101050002068FFF797FC012000F04AF9A1890022DF
:10106000A068FFF78FFC012000F042F9A18801225F
:101070002068FFF787FC012000F03AF9A1890122DE
:10108000A068FFF77FFC012000F032F910BD10B519
:1010900000F002F810BD00000CB500200190009097
:1010A0003348006840F480303149086000BF304860
:1010B000006800F4003000900198401C01900098F6
:1010C00018B90198B0F5A06FF1D12948006800F473
:1010D000003010B10120009001E000200090009845
:1010E000012843D12348006840F0100021490860DE
:1010F0000846006820F0070008600846006840F0D5
:10110000020008601A48406819494860084640686B
:1011100048600846406840F480604860084640687F
:1011200020F47C1048600846406840F4E8104860AD
:101130000846006840F08070086000BF0C480068F6
:1011400000F000700028F9D00948406820F0030042
:10115000074948600846406840F00200486000BF08
:101160000348406800F00C000828F9D10CBD0000CD
:1011700000100240002002400448036840685A1CE6
:1011800040F1000001490A604860704714000020E7
:1011900010B51348006840F0010011490860084686
:1011A0004068104908400E494860084600680E49EA
:1011B00008400B4908600846006820F48020086059
:1011C0000846406820F4FE0048604FF41F00886025
:1011D000FFF75DFF4FF000600449086010BD00009C
:1011E000001002400000FFF8FFFFF6FE08ED00E0EF
:1011F00000BFFEE702E008C8121F08C1002AFAD1AA
:1012000070477047002001E001C1121F002AFBD186
:10121000704700002DE9F041C1F30A52A2F2FF36F7
:101220002F4A304B0D460446142E2FDA002E12DAC8
:10123000FEF78CFF00221346FFF7A6F94CD2002DD3
:10124000BCBF4FF00045002446DB55EA040018BF40
:10125000254D19D140E0DFF894C02CFA06F705EAD5
:10126000070C5CEA040C08BFBDE8F081FEF76EFFD6
:1012700000221346FFF788F92ED2002D03DD4FF42C
:101280008010F0400544BD43002425E0332EC8BF44
:10129000BDE8F081A6F1140C4FF0FF3727FA0CF7E8
:1012A0003C4208BFBDE8F081FEF7F4FF0022134680
:1012B000FFF76AF910D2002D0DDD142E08BF6D1C4A
:1012C00009D0C6F13400012101FA00F02044A04207
:1012D00038BF6D1C0446BC4329462046BDE8F0815A
:1012E0009C7500883CE4377E0000F03FFFFF0F0054
:1012F000002100E0491CC2008A42FBD87047000070
:1013000070B504460D46164633462A462146024825
:10131000FFF7C4FB70BD000028000020FFF7FAFBB8
:10132000FFF73AFB29E01548FFF707FC00221146BA
:101330001248FFF777FD124B402280210F48FFF73C
:1013400004FC0E48FFF7FAFC4FF4FA70FFF7AEF911
:101350000A48FFF7F2FB002211460848FFF762FD3A
:10136000084B402280210548FFF7EFFB0348FFF7B9
:10137000E5FC4FF4FA70FFF799F9D4E73800002044
:10138000B0150008B0190008F0B50B30154D20F06D
:1013900007010024144A0FE003688B420BD38B42F1
:1013A00005D95E1A43184768C3E9006700E043683F
:1013B000136002C004E0021D10680028ECD1204632
:1013C000002802D1286808B10020F0BD064A07486D
:1013D0001060074A121A22F00702C0E90024012017
:1013E0002860D7E7240000202000002064000020AF
:1013F0006010002000060000C60018C60018C400D7
:1014000018C40018C44018FFC01FFC00FCCC001812
:10141000CC0018CC0018FC0018C0001840001800C0
:10142000001801803FFF800618000718000E3000EA
:101430000C30401C7FE01840C030C080788D00D94F
:101440000C00184C00184D8018CCC0198CE0198C79
:1014500060188C00184C00183C000818000C008024
:101460000C03C00C7DC00C0380190300198E001FF3
:101470008600FB06005307E033FE002606001E062A
:10148000000F86001F8600188600307E00401C007A
:10149000800C00000E001FFE0018CE001BEC0008A0
:1014A000CC000FFC0009C00003F000061C000C0F6C
:1014B000001E37C06633E08630000630000C300076
:1014C0000C3000183000303000000000164E0000D4
:1014D000604F00007D5900004C7500003432000858
:1014E000164E0000DE0300001600000000000000A1
:1014F0000000000000000000120011000200FFFFC9
:1015000033000000F4130008E0310008604F0000D1
:10151000DE030000160000000000000000000000D4
:1015200000000000130012000100FDFF3600000063
:1015300027140008443200087D590000B103000060
:101540001500000000000000000000000000000086
:10155000130012000100FDFF360000005D140008BA
:101560003C3200084C750000DE030000160000004D
:101570000000000000000000000000001300120046
:101580000200FCFF3600000093140008303200080F
:10159000E83100080000000010006400640018003A
:1015A0001D00FFFFF8FF0600CC140008DC14000843
:1015B000FFFFFFFFFFFFFFFFFFFFFFFFFFFFFFFF3B
:1015C000FFFFFFFFFFFFFFFFFFFFFFFFFFFFFFFF2B
:1015D000FFFFFFFFFFFFFFFFFFFFFFFFFFFFFFFF1B
:1015E000FFFFFFFFFFFFFFFFFFFFFFFFFFFFFFFF0B
:1015F000FFFFFFFFFFFFFFFFFFFFFFFFFFFFFFFFFB
:10160000FFFFFFFFFFFFFFFFFFFFFFFFFFFFFFFFEA
:10161000FFFFFFFFFF07FFFFFFFFFFFFFFFFFFFFD2
:10162000FFFFFFFFFC03FFFCC1FFE3FFFFFFFFFF26
:10163000FFFFFFFFF871FFF800FF81FFFFFFFFFFD3
:10164000FFFFFFFFF1F8FFF01CFF087FFFFFFFFF28
:10165000FFFFFFFFF3FE7FF3BCFE3E3FFFFFFFFFF8
:10166000FFFFFFFFF3FE3E001CFC7F3FFFFFFFFF7D
:10167000FFFFFFFFF3FF10000038FF3FFFFFFFFFFA
:10168000FFFFFFFFF1FF807FF001FF3FFFFFFFFF44
:10169000FFFFFFFFF9FFC7FFFF83FE3FFFFFFFFFD5
:1016A000FFFFFFFFF8FFFFFFFFE7FC7FFFFFFFFFEC
:1016B000FFFFFFFFFC7FFFC000FFFCFFFFFFFFFFFE
:1016C000FFFFFFFFFE7FFE00000FF8FFFFFFFFFFA1
:1016D000FFFFFFFFFE3FF83FFF87F1FFFFFFFFFF28
:1016E000FFFFFFFFFF3FF0FFFFE1E3FFFFFFFFFF13
:1016F000FFFFFFFFFF1FE3FFFFF8F1FFFFFFFFFF0B
:10170000FFFFFFFFFF3FCF81FFFC79FFFFFFFFFFE0
:10171000FFFFFFFFFE7F9E007F007CFFFFFFFFFFBC
:10172000FFFFFFFFFC7F187E3C003C7FFFFFFFFFB9
:10173000FFFFFFFFF8FF31FF18FE1E3FFFFFFFFF17
:10174000FFFFFFFFF9FE73FF81FF8F3FFFFFFFFFEA
:10175000FFFFFFFFF1FE67FFC3FFCF3FFFFFFFFF6C
:10176000FFFFFFFFE3FCCFF847F0C79FFFFFFFFF3E
:10177000FFFFFFFFE7F9CFF827E0679FFFFFFFFFBD
:10178000FFFFFFFFC7F9CFF027E0638FFFFFFFFFE9
:10179000FFFFFFFFCFF1CFF027E063CFFFFFFFFF99
:1017A000FFFFFFFF8FF3CFF827F0E3CFFFFFFFFF2F
:1017B000FFFFFFFF8FF3CFFC67F9E1CFFFFFFFFFD4
:1017C000FFFFFFFF9FF3C7FFC7FFC9CFFFFFFFFF6B
:1017D000FFFFFFFF9FF7E3FFC7FFC9C7FFFFFFFF43
:1017E000FFFFFFFF9FE7F1FF83FF9DE7FFFFFFFF85
:1017F000FFFFFFFF3FE7F87E00FF1DE7FFFFFFFF52
:10180000FFFFFFFF3FE7FC00000034E7FFFFFFFFA3
:10181000FFFFFFFF3FE03F01FE00C0E7FFFFFFFFCC
:10182000FFFFFFFF3FF00FE3FF8F80E7FFFFFFFFAA
:10183000FFFFFFFF3FF00FE7FF8781E7FFFFFFFF9D
:10184000FFFFFFFF3FF007C7FFE781E7FFFFFFFF55
:10185000FFFFFFFF3FF007C0380381E7FFFFFFFFF7
:10186000FFFFFFFF9FF007C0000381C7FFFFFFFFDF
:10187000FFFFFFFF9FF007C300C781CFFFFFFFFF00
:10188000FFFFFFFF9FF80FE1FFCFC3CFFFFFFFFF79
:10189000FFFFFFFF8FFC0FF83E0FC38FFFFFFFFF1F
:1018A000FFFFFFFFCFFC1FFE003FE79FFFFFFFFF93
:1018B000FFFFFFFFC7FE1FFFC07FE79FFFFFFFFF88
:1018C000FFFFFFFFE3FF07FFFFFFCF3FFFFFFFFF2C
:1018D000FFFFFFFFF1FFC07FFFFF8E3FFFFFFFFF16
:1018E000FFFFFFFFF8FFF003FFFE1C7FFFFFFFFF7E
:1018F000FFFFFFFFFC7FFF80000078FFFFFFFFFF7F
:10190000FFFFFFFFFE1FFFFC0001F1FFFFFFFFFFD6
:10191000FFFFFFFFFF07FFFFFFFFE3FFFFFFFFFFEB
:10192000FFFFFFFFFFC0FFFFFFFF87FFFFFFFFFF7E
:10193000FFFFFFFFFFE000FFFFFC0FFFFFFFFFFFC8
:10194000FFFFFFFFFFC6000000001FFFFFFFFFFFBC
:10195000FFFFFFFFFF8FFF8000039FFFFFFFFFFFE1
:10196000FFFFFFFFFF9FFFFFFFFF8FFFFFFFFFFF57
:10197000FFFFFFFFFF1FFFFFFFFFC7FFFFFFFFFF8F
:10198000FFFFFFFFFE3CFFFFFFFE67FFFFFFFFFFC4
:10199000FFFFFFFFFE78FFFFFFFE23FFFFFFFFFFBC
:1019A000FFFFFFFFFC79FFFFFFFF33FFFFFFFFFF9C
:1019B000FFFFFFFFFFFFFFFFFFFFFFFFFFFFFFFF37
:1019C000FFFFFFFFFFFFFFFFFFFFFFFFFFFFFFFF27
:1019D000FFFFFFFFFFFFFFFFFFFFFFFFFFFFFFFF17
:1019E000FFFFFFFFFFFFFFFFFFFFFFFFFFFFFFFF07
:1019F000FFFFFFFFFFFFFFFFFFFFFFFFFFFFFFFFF7
:101A0000FFFFFFFFFFFFFFFFFFFFFFFFFFFFFFFFE6
:101A1000FFFFFFFFFFFFFFFFFFFFE0FFFFFFFFFFF5
:101A2000FFFFFFFFFFC7FF833FFFC03FFFFFFFFF39
:101A3000FFFFFFFFFF81FF001FFF8E1FFFFFFFFF64
:101A4000FFFFFFFFFE10FF380FFF1F8FFFFFFFFF9D
:101A5000FFFFFFFFFC7C7F3DCFFE7FCFFFFFFFFF3F
:101A6000FFFFFFFFFCFE3F38007C7FCFFFFFFFFF43
:101A7000FFFFFFFFFCFF1C000008FFCFFFFFFFFF81
:101A8000FFFFFFFFFCFF800FFE01FF8FFFFFFFFF47
:101A9000FFFFFFFFFC7FC1FFFFE3FF9FFFFFFFFF93
:101AA000FFFFFFFFFE3FE7FFFFFFFF1FFFFFFFFFFF
:101AB000FFFFFFFFFF3FFF0003FFFE3FFFFFFFFFB2
:101AC000FFFFFFFFFF1FF000007FFE7FFFFFFFFF14
:101AD000FFFFFFFFFF8FE1FFFC1FFC7FFFFFFFFF0A
:101AE000FFFFFFFFFFC787FFFF0FFCFFFFFFFFFFA9
:101AF000FFFFFFFFFF8F1FFFFFC7F8FFFFFFFFFF85
:101B0000FFFFFFFFFF9E3FFF81F3FCFFFFFFFFFF93
:101B1000FFFFFFFFFF3E00FE0079FE7FFFFFFFFF9C
:101B2000FFFFFFFFFE3C003C7E18FE3FFFFFFFFF74
:101B3000FFFFFFFFFC787F18FF8CFF1FFFFFFFFFF9
:101B4000FFFFFFFFFCF1FF81FFCE7F9FFFFFFFFF45
:101B5000FFFFFFFFFCF3FFC3FFE67F8FFFFFFFFFE9
:101B6000FFFFFFFFF9E30FE21FF33FC7FFFFFFFF98
:101B7000FFFFFFFFF9E607E41FF39FE7FFFFFFFF0B
:101B8000FFFFFFFFF1C607E40FF39FE3FFFFFFFF37
:101B9000FFFFFFFFF3C607E40FF38FF3FFFFFFFF25
:101BA000FFFFFFFFF3C70FE41FF3CFF1FFFFFFFFBE
:101BB000FFFFFFFFF3879FE63FF3CFF1FFFFFFFF3C
:101BC000FFFFFFFFF393FFE3FFE3CFF9FFFFFFFF0B
:101BD000FFFFFFFFE393FFE3FFC7EFF9FFFFFFFF07
:101BE000FFFFFFFFE7B9FFC1FF8FE7F9FFFFFFFF2F
:101BF000FFFFFFFFE7B8FF007E1FE7FCFFFFFFFFCF
:101C0000FFFFFFFFE72C0000003FE7FCFFFFFFFFA7
:101C1000FFFFFFFFE703007F80FC07FCFFFFFFFFE4
:101C2000FFFFFFFFE701F1FFC7F00FFCFFFFFFFF22
:101C3000FFFFFFFFE781E1FFE7F00FFCFFFFFFFF82
:101C4000FFFFFFFFE781E7FFE3E00FFCFFFFFFFF80
:101C5000FFFFFFFFE781C01C03E00FFCFFFFFFFF5A
:101C6000FFFFFFFFE381C00003E00FF9FFFFFFFF6D
:101C7000FFFFFFFFF381E300C3E00FF9FFFFFFFF6A
:101C8000FFFFFFFFF3C3F3FF87F01FF9FFFFFFFF25
:101C9000FFFFFFFFF1C3F07C1FF03FF1FFFFFFFFED
:101CA000FFFFFFFFF9E7FC007FF83FF3FFFFFFFFB7
:101CB000FFFFFFFFF9E7FE03FFF87FE3FFFFFFFFF2
:101CC000FFFFFFFFFCF3FFFFFFE0FFC7FFFFFFFF8A
:101CD000FFFFFFFFFC71FFFFFE03FF8FFFFFFFFF12
:101CE000FFFFFFFFFE387FFFC00FFF1FFFFFFFFF5B
:101CF000FFFFFFFFFF1E000001FFFE3FFFFFFFFF92
:101D0000FFFFFFFFFF8F80003FFFF87FFFFFFFFF18
:101D1000FFFFFFFFFFC7FFFFFFFFE0FFFFFFFFFF2A
:101D2000FFFFFFFFFFE1FFFFFFFF03FFFFFFFFFFDD
:101D3000FFFFFFFFFFF03FFFFF0007FFFFFFFFFF79
:101D4000FFFFFFFFFFF80000000063FFFFFFFFFF42
:101D5000FFFFFFFFFFF9C00001FFF1FFFFFFFFFFE3
:101D6000FFFFFFFFFFF1FFFFFFFFF9FFFFFFFFFF97
:101D7000FFFFFFFFFFE3FFFFFFFFF8FFFFFFFFFF96
:101D8000FFFFFFFFFFE67FFFFFFF3C7FFFFFFFFF3F
:101D9000FFFFFFFFFFC47FFFFFFF1E7FFFFFFFFF6F
:101DA000FFFFFFFFFFCCFFFFFFFF9E3FFFFFFFFF97
:101DB0000080808080800080A0A0A05050F850F863
:101DC00050502078A05008D0C0C81020409818E08B
:101DD00090A040A89068C040802040808080402033
:101DE000804020202040805020F820502020F820E3
:101DF00020C04080F8C0C00810204080708898A89B
:101E0000C8887040C040404040E0708808102040C2
:101E1000F8F810201008887010305090F81010F862
:101E200080F008088870304080F0888870F80810CA
:101E30002040404070888870888870708888780852
:101E40001060C0C000C0C0C0C000C04080102040B2
:101E500080402010F800F8804020102040807088DA
:101E6000081020002070880868A8A87070888888EA
:101E7000F88888F08888F08888F07088808080886A
:101E800070E09088888890E0F88080F08080F8F892
:101E90008080E080808070888080988870888888C2
:101EA000F8888888C04040404040C0301010101072
:101EB00090608890A0C0A09088808080808080F80A
:101EC00088D8A8888888888888C8A89888887088CA
:101ED0008888888870F08888F080808070888888FA
:101EE000A89068F08888F0A09088788080700808B2
:101EF000F0F8202020202020888888888888708812
:101F0000888888885020888888A8A8D88888885099
:101F10002050888888885020202020F808102040F1
:101F200080F8E08080808080E08040201008E02001
:101F300020202020E0205088F880402070087888F9
:101F4000788080B0C88888F07080808870080868C1
:101F5000988888787088F88070304840E040404029
:101F600078887808308080B0C88888884000C04071
:101F70004040E010003010109060808090A0C0A021
:101F800090C04040404040E0D0A8A88888B0C888B1
:101F900088887088888870F088F0808068987808D1
:101FA0000808B0C880808070807008704040E040B1
:101FB0004048308888888898688888885020888831
:101FC000A8A85088502050888888780870F8102079
:101FD00040F8204040804040208080808080808089
:101FE0008040402040408040A810000020000000B9
:101FF0002100000022000000230000002400000057
:102000002500000026000000270000002800000036
:10201000290000002A0000002B0000002C00000016
:102020002D0000002E0000002F00000030000000F6
:1020300031000000320000003300000034000000D6
:1020400035000000360000003700000038000000B6
:10205000390000003A0000003B0000003C00000096
:102060003D0000003E0000003F0000004000000076
:102070004100000042000000430000004400000056
:102080004500000046000000470000004800000036
:10209000490000004A0000004B0000004C00000016
:1020A0004D0000004E0000004F00000050000000F6
:1020B00051000000520000005300000054000000D6
:1020C00055000000560000005700000058000000B6
:1020D000590000005A0000005B0000005C00000096
:1020E0005D0000005E0000005F0000006000000076
:1020F0006100000062000000630000006400000056
:102100006500000066000000670000006800000035
:10211000690000006A0000006B0000006C00000015
:102120006D0000006E0000006F00000070000000F5
:1021300071000000720000007300000074000000D5
:1021400075000000760000007700000078000000B5
:10215000790000007A0000007B0000007C00000095
:102160007D0000007E0000004C32000820000000CE
:10217000E80300000700000000000000000000006D
:10218000000000000000000000000000000000004F
:10219000B01D00087C32000821000000E8030000A8
:1021A0000700000000000000000000000000000028
:1021B000010007000300010007000000B11D000836
:1021C000AC32000822000000E80300000700000015
:1021D00000000000000000000000000003000300F9
:1021E0000200040003000000B81D0008DC320008F3
:1021F00023000000E80300000700000000000000CA
:1022000000000000000000000500070001000100C0
:1022100007000000BB1D00080C330008240000006C
:10222000E8030000070000000000000000000000BC
:10223000000000000500060001000200060000008A
:10224000C21D00083C33000825000000E803000020
:102250000700000000000000000000000000000077
:10226000050007000100010007000000C81D00086C
:102270006C33000826000000E8030000070000009F
:102280000000000000000000000000000500070042
:102290000100010007000000CF1D00089C3300086A
:1022A00027000000E8030000070000000000000015
:1022B0000000000000000000020003000200050012
:1022C00003000000D61D0008CC33000828000000E1
:1022D000E80300000700000000000000000000000C
:1022E00000000000030007000200010007000000DA
:1022F000D91D00080834000829000000E803000088
:1023000007000000000000000000000000000000C6
:10231000030007000200010007000000E01D0008A4
:10232000383400082A000000E8030000070000001D
:102330000000000000000000000000000500050093
:102340000100020005000000E71D000868340008D5
:102350002B000000E8030000070000000000000060
:102360000000000000000000050005000100020060
:1023700005000000EC1D0008983400082C00000047
:10238000E80300000700000000000000000000005B
:102390000000000002000300020001000300000032
:1023A000F11D0008C83400082D000000E8030000FB
:1023B0000700000000000000000000000000000016
:1023C000050001000100040001000000F41D0008E8
:1023D000F83400082E000000E803000007000000A9
:1023E00000000000000000000000000002000200E9
:1023F0000200010002000000F51D00082835000859
:102400002F000000E80300000700000000000000AB
:1024100000000000000000000500050001000200AF
:1024200005000000F71D00085432000830000000CD
:10243000E8030000070000000000000000000000AA
:102440000000000005000700010001000700000077
:10245000FC1D00088432000831000000E803000081
:102460000700000000000000000000000000000065
:10247000030007000200010007000000031E00081F
:10248000B432000832000000E8030000070000003A
:102490000000000000000000000000000500070030
:1024A00001000100070000000A1E0008E4320008D5
:1024B00033000000E80300000700000000000000F7
:1024C00000000000000000000500070001000100FE
:1024D00007000000111E000814330008340000003B
:1024E000E8030000070000000000000000000000FA
:1024F00000000000050007000100010007000000C7
:10250000181E00084433000835000000E8030000EE
:1025100007000000000000000000000000000000B4
:102520000500070001000100070000001F1E000851
:102530007433000836000000E803000007000000C4
:10254000000000000000000000000000050007007F
:102550000100010007000000261E0008A433000847
:1025600037000000E8030000070000000000000042
:10257000000000000000000005000700010001004D
:10258000070000002D1E0008D433000838000000AA
:10259000E803000007000000000000000000000049
:1025A0000000000005000700010001000700000016
:1025B000341E00081034000839000000E803000051
:1025C0000700000000000000000000000000000004
:1025D0000500070001000100070000003B1E000885
:1025E000403400083A000000E80300000700000043
:1025F00000000000000000000000000002000500D4
:102600000200020005000000421E000870340008AD
:102610003B000000E803000007000000000000008D
:10262000000000000000000002000600020001009F
:1026300006000000471E0008A03400083C0000000F
:10264000E803000007000000000000000000000098
:102650000000000004000700020001000700000065
:102660004D1E0008D03400083D000000E8030000C3
:102670000700000000000000000000000000000053
:10268000050003000100030003000000541E0008C1
:10269000003500083E000000E803000007000000CD
:1026A000000000000000000000000000040007001F
:1026B0000100010007000000571E00083035000827
:1026C0003F000000E80300000700000000000000D9
:1026D00000000000000000000500070001000100EC
:1026E000070000005E1E00085C3200084000000089
:1026F000E8030000070000000000000000000000E8
:1027000000000000050007000100010007000000B4
:10271000651E00088C32000841000000E80300003C
:1027200007000000000000000000000000000000A2
:102730000500070001000100070000006C1E0008F2
:10274000BC32000842000000E8030000070000005F
:10275000000000000000000000000000050007006D
:102760000100010007000000731E0008EC320008A1
:1027700043000000E8030000070000000000000024
:10278000000000000000000005000700010001003B
:10279000070000007A1E00081C33000844000000F7
:1027A000E803000007000000000000000000000037
:1027B0000000000005000700010001000700000004
:1027C000811E00084C33000845000000E8030000AB
:1027D00007000000000000000000000000000000F2
:1027E000050007000100010007000000881E000826
:1027F0007C33000846000000E803000007000000EA
:1028000000000000000000000000000005000700BC
:1028100001000100070000008F1E0008AC33000813
:1028200047000000E803000007000000000000006F
:10283000000000000000000005000700010001008A
:1028400007000000961E0008DC3300084800000066
:10285000E803000007000000000000000000000086
:102860000000000005000700010001000700000053
:102870009D1E00081834000849000000E80300000D
:102880000700000000000000000000000000000041
:10289000030007000200010007000000A41E00085A
:1028A000483400084A000000E80300000700000068
:1028B000000000000000000000000000050007000C
:1028C0000100010007000000AB1E0008783400087A
:1028D0004B000000E80300000700000000000000BB
:1028E00000000000000000000500070001000100DA
:1028F00007000000B21E0008A83400084C000000C9
:10290000E8030000070000000000000000000000D5
:1029100000000000050007000100010007000000A2
:10292000B91E0008D83400084D000000E80300007C
:102930000700000000000000000000000000000090
:10294000050007000100010007000000C01E00088C
:10295000083500084E000000E803000007000000F2
:10296000000000000000000000000000050007005B
:102970000100010007000000C71E000838350008EC
:102980004F000000E8030000070000000000000006
:102990000000000000000000050007000100010029
:1029A00007000000CE1E000864320008500000003E
:1029B000E803000007000000000000000000000025
:1029C00000000000050007000100010007000000F2
:1029D000D51E00089432000851000000E8030000F2
:1029E00007000000000000000000000000000000E0
:1029F000050007000100010007000000DC1E0008C0
:102A0000C432000852000000E80300000700000084
:102A100000000000000000000000000005000700AA
:102A20000100010007000000E31E0008F432000866
:102A300053000000E8030000070000000000000051
:102A40000000000000000000050007000100010078
:102A500007000000EA1E00082433000854000000AC
:102A6000E803000007000000000000000000000074
:102A70000000000005000700010001000700000041
:102A8000F11E00085433000855000000E803000060
:102A9000070000000000000000000000000000002F
:102AA000050007000100010007000000F81E0008F3
:102AB0008433000856000000E8030000070000000F
:102AC00000000000000000000000000005000700FA
:102AD0000100010007000000FF1E0008B4330008D9
:102AE00057000000E803000007000000000000009D
:102AF00000000000000000000500070001000100C8
:102B000007000000061F0008E4330008580000001A
:102B1000E8030000070000000000000000000000C3
:102B20000000000005000700010001000700000090
:102B30000D1F00082034000859000000E8030000C1
:102B4000070000000000000000000000000000007E
:102B5000050007000100010007000000141F000825
:102B6000503400085A000000E8030000070000008D
:102B70000000000000000000000000000500070049
:102B800001000100070000001B1F0008803400083E
:102B90005B000000E80300000700000000000000E8
:102BA0000000000000000000030007000200010018
:102BB00007000000221F0008B03400085C0000007D
:102BC000E803000007000000000000000000000013
:102BD00000000000050005000100020005000000E3
:102BE000291F0008E03400085D000000E803000031
:102BF00007000000000000000000000000000000CE
:102C00000300070002000100070000002E1F00085B
:102C1000103500085E000000E80300000700000017
:102C2000000000000000000000000000050003009C
:102C30000100050003000000351F000840350008B2
:102C40005F000000E8030000070000000000000033
:102C5000000000000000000005000100010001006C
:102C600001000000381F00086C32000860000000FE
:102C7000E803000007000000000000000000000062
:102C80000000000003000300020005000300000034
:102C9000391F00089C32000861000000E8030000B2
:102CA000070000000000000000000000000000001D
:102CB0000500050001000100050000003C1F0008A0
:102CC000CC32000862000000E803000007000000AA
:102CD00000000000000000000000000005000700E8
:102CE0000100010007000000411F0008FC3200083D
:102CF00063000000E803000007000000000000007F
:102D000000000000000000000500050001000100B7
:102D100005000000481F00082C3300086400000074
:102D2000E8030000070000000000000000000000B1
:102D3000000000000500070001000100070000007E
:102D40004D1F00085C33000865000000E803000028
:102D5000070000000000000000000000000000006C
:102D6000050005000100010005000000541F0008D7
:102D70008C33000866000000E80300000700000034
:102D80000000000000000000000000000500070037
:102D90000100010007000000591F0008BC330008B3
:102DA00067000000E80300000700000000000000CA
:102DB0000000000000000000050005000100010007
:102DC00005000000601F0008EC33000868000000E8
:102DD000E803000007000000000000000000000001
:102DE00000000000050007000100010007000000CE
:102DF000651F00082834000869000000E80300008F
:102E000007000000000000000000000000000000BB
:102E10000300070002000100070000006C1F00080B
:102E2000583400086A000000E803000007000000B2
:102E30000000000000000000000000000400070087
:102E40000100010007000000731F0008883400081B
:102E50006B000000E8030000070000000000000015
:102E60000000000000000000040007000200010054
:102E7000070000007A1F0008B83400086C0000004A
:102E8000E803000007000000000000000000000050
:102E9000000000000300070002000100070000001E
:102EA000811F0008E83400086D000000E8030000FE
:102EB000070000000000000000000000000000000B
:102EC000050005000100010005000000881F000842
:102ED000183500086E000000E8030000070000003D
:102EE00000000000000000000000000005000500D8
:102EF00001000100050000008D1F00084835000892
:102F00006F000000E8030000070000000000000060
:102F100000000000000000000500050001000100A5
:102F200005000000921F00087432000870000000C5
:102F3000E80300000700000000000000000000009F
:102F40000000000005000500010001000500000070
:102F5000971F0008A432000871000000E803000079
:102F6000070000000000000000000000000000005A
:102F70000500060001000100060000009C1F00087B
:102F8000D432000872000000E803000007000000CF
:102F90000000000000000000000000000500050027
:102FA0000100010005000000A21F00080433000812
:102FB00073000000E80300000700000000000000AC
:102FC00000000000000000000500050001000100F5
:102FD00005000000A71F000834330008740000003B
:102FE000E8030000070000000000000000000000EF
:102FF00000000000050007000100010007000000BC
:10300000AC1F00086433000875000000E8030000EE
:1030100007000000000000000000000000000000A9
:10302000050006000100010006000000B31F0008B3
:103030009433000876000000E80300000700000059
:103040000000000000000000000000000500050076
:103050000100010005000000B91F0008C43300088A
:1030600077000000E80300000700000000000000F7
:103070000000000000000000050005000100010044
:1030800005000000BE1F0008F433000878000000AF
:10309000E80300000700000000000000000000003E
:1030A000000000000500050001000100050000000F
:1030B000C31F00083034000879000000E803000056
:1030C00007000000000000000000000000000000F9
:1030D000050005000100010005000000C81F0008F0
:1030E000603400087A000000E803000007000000D8
:1030F00000000000000000000000000005000500C6
:103100000100010005000000CD1F000890340008F8
:103110007B000000E8030000070000000000000042
:103120000000000000000000030007000200010092
:1031300007000000D21F0008C03400087C00000017
:10314000E80300000700000000000000000000008D
:10315000000000000100070003000100070000005C
:10316000D91F0008F03400087D000000E8030000CB
:103170000700000000000000000000000000000048
:10318000030007000200010007000000E01F000824
:10319000203500087E000000E80300000700000062
:1031A0000000000000000000000000000500030017
:1031B0000100050003000000E71F0008303200088E
:1031C000FC33000800000000080048004800070029
:1031D0000800000000005F00EC1F000868210008E4
:1031E00034463630000000002D4672656554797013
:1031F000652D48594A696E4B61694A2D4D65646970
:10320000756D2D522D4E6F726D616C2D2D32322DDC
:103210003136302D3130302D3130302D502D313888
:10322000322D49534F31303634362D3100000000F5
:10323000322E31003445313600000000373534433A
:1032400000000000353937440000000030303230D3
:1032500000000000303033300000000030303430E7
:1032600000000000303035300000000030303630D3
:1032700000000000303037300000000030303231C4
:1032800000000000303033310000000030303431B5
:1032900000000000303035310000000030303631A1
:1032A0000000000030303731000000003030323292
:1032B0000000000030303332000000003030343283
:1032C000000000003030353200000000303036326F
:1032D0000000000030303732000000003030323360
:1032E0000000000030303333000000003030343351
:1032F000000000003030353300000000303036333D
:10330000000000003030373300000000303032342D
:10331000000000003030333400000000303034341E
:10332000000000003030353400000000303036340A
:1033300000000000303037340000000030303235FB
:1033400000000000303033350000000030303435EC
:1033500000000000303035350000000030303635D8
:1033600000000000303037350000000030303236C9
:1033700000000000303033360000000030303436BA
:1033800000000000303035360000000030303636A6
:103390000000000030303736000000003030323797
:1033A0000000000030303337000000003030343788
:1033B0000000000030303537000000003030363774
:1033C0000000000030303737000000003030323865
:1033D0000000000030303338000000003030343856
:1033E0000000000030303538000000003030363842
:1033F0000000000030303738000000004D6174726A
:10340000697820357838000030303239000000000B
:103410003030333900000000303034390000000013
:1034200030303539000000003030363900000000FF
:1034300030303739000000003030324100000000E9
:1034400030303341000000003030344100000000D3
:1034500030303541000000003030364100000000BF
:1034600030303741000000003030324200000000B0
:1034700030303342000000003030344200000000A1
:10348000303035420000000030303642000000008D
:10349000303037420000000030303243000000007E
:1034A000303033430000000030303443000000006F
:1034B000303035430000000030303643000000005B
:1034C000303037430000000030303244000000004C
:1034D000303033440000000030303444000000003D
:1034E0003030354400000000303036440000000029
:1034F000303037440000000030303245000000001A
:10350000303033450000000030303445000000000A
:1035100030303545000000003030364500000000F6
:1035200030303745000000003030324600000000E7
:1035300030303346000000003030344600000000D8
:1035400030303546000000003030364600000000C4
:10355000703500080000002028000000F411000869
:1035600098350008280000203820000004120008C8
:103570000000000001020304010203040607080919
:103580000204060800000000000000000000000027
:08359000000000000000000033
:04000005080000ED02
:00000001FF
