:020000040800F2
:100000002010002005010008CF070008190600088D
:100010001D060008150400084B0B00080000000036
:10002000000000000000000000000000C9080008F7
:100030001904000800000000D1070008B5090008F5
:100040001F0100081F0100081F0100081F01000810
:100050001F0100081F0100081F0100081F01000800
:100060001F0100081F0100081F0100081F010008F0
:100070001F0100081F0100081F0100081F010008E0
:100080001F0100081F0100081F0100081F010008D0
:100090001F0100081F0100081F0100081F010008C0
:1000A0001F0100081F0100081F0100081F010008B0
:1000B0001F0100081F0100081F0100081F010008A0
:1000C0001F0100081F0100081F0100081F01000890
:1000D0001F0100081F0100081F0100081F01000880
:1000E0001F0100081F0100081F010008DFF810D0E1
:1000F00000F07EF9004800476D0B0008AFF3008068
:10010000201000200648804706480047FEE7FEE72B
:10011000FEE7FEE7FEE7FEE7FEE7FEE7FEE7FEE7B7
:10012000CD090008ED000008D2B201E000F8012B73
:10013000491EFBD270470022F6E710B513460A4667
:1001400004461946FFF7F0FF204610BD421C10F888
:10015000011B0029FBD1801A70472DE9F04D81EA7F
:10016000030404F0004B21F0004514464FF0000A50
:1001700023F0004150EA050220D054EA01021DD0CC
:10018000C5F30A570246C5F31303C1F31300C1F3C5
:100190000A5640F4801543F48013A7EB0608101BA1
:1001A000D64608F2FD3873EB050002D308F10108CA
:1001B00001E092185B41B8F1000F03DA002001461C
:1001C000BDE8F08D00204FF48011064684460EE015
:1001D000171B73EB050705D3121B63EB05030643DF
:1001E0004CEA010C49084FEA300092185B4150EA92
:1001F0000107EDD152EA030012D082EA040083EA3B
:100200000501084305D0101BAB4106D20122002393
:1002100006E000224FF0004302E06FF001025310AD
:100220001AEB06004CEB085110EB0A0041EB0B01F6
:10023000BDE8F04D00F07FB80EB540F233410291B9
:100240000021CDE900110A460B4600F083F803B007
:1002500000BD01F0004330B421F0004150EA01023A
:1002600006D00A0DA2F56072C1F31301002A02DC68
:1002700030BC00207047440F44EAC104C100E018BC
:1002800030BC00EBC25000F01FB8202A04DB203A3B
:1002900000FA02F1002070479140C2F1200320FAD9
:1002A00003F3194390407047202A04DB203A21FAD7
:1002B00002F00021704721FA02F3D040C2F120027F
:1002C00091400843194670470029A8BF7047401C59
:1002D000490008BF20F00100704710B4B0FA80FC5C
:1002E00000FA0CF050EA010404BF10BC704749B199
:1002F000CCF1200421FA04F411FA0CF118BF012109
:1003000021430843A3EB0C01CB1D4FEA00614FEAE8
:10031000102042BF002010BC704700EBC3501044B7
:100320000029A4BF10BC7047401C490008BF20F042
:10033000010010BC704710B5141E73F1000408DAF8
:10034000401C41F1000192185B411A4301D120F099
:10035000010010BD2DE9F04D92469B4611B1B1FA56
:1003600081F202E0B0FA80F220329046FFF78DFF72
:1003700004460F4640EA0A0041EA0B0153465A463A
:10038000084313D0114653EA010019D0C8F14002C6
:100390005046FFF789FF05460E46504659464246ED
:1003A000FFF773FF084305D0012004E020463946DB
:1003B000BDE8F08D0020054346EAE0762C43374344
:1003C0000A986305E40AA0EB08000022FD0A44EA4B
:1003D00047540A3002D500200146E9E7010510190B
:1003E0006941DDE9084500196941BDE8F04DA2E722
:1003F000064C074D06E0E06840F0010394E8070072
:1004000098471034AC42F6D3FFF774FE980B0008FF
:10041000B80B000800BFFEE7704700002DE9F0416F
:1004200086B02E480078002855D101202B4908704D
:10043000142101A8FFF77FFE4FF0E020006920F0B3
:1004400001004FF0E021086100202549086001A863
:1004500000F0D0F94FF0E020006940F002004FF0CA
:10046000E021086100211F48C1774FF47A7102989A
:10047000B0FBF1F4B4F1807F09D3E4084FF0E02041
:10048000006920F004004FF0E021086107E04FF020
:10049000E020006940F004004FF0E0210861601E98
:1004A0004FF0E02148610846006940F00100086112
:1004B000496921F07F41481CFFF7BEFE07463A46D6
:1004C0000B4600200849FFF748FE0546FFF7C1FE2E
:1004D0000649086000BF06B0BDE8F08118000020A2
:1004E0001400002000ED00E000408F401C000020C0
:1004F0002DE9F041024600250026002000230024BB
:10050000002791F803C00CF00F0591F803C00CF020
:10051000100CBCF1000F03D091F802C04CEA0505A5
:1005200091F800C0BCF1000F31D0146800202BE01E
:100530004FF0010C0CFA00F3B1F800C00CEA03060E
:100540009E4220D183004FF00F0C0CFA03F7BC43FE
:1005500005FA03FC4CEA040491F803C0BCF1280F2F
:1005600006D14FF0010C0CFA00FCC2F814C00AE0EE
:1005700091F803C0BCF1480F05D14FF0010C0CFA03
:1005800000FCC2F810C0401C0828D1D31460B1F898
:1005900000C0BCF1FF0F34DD546800202EE000F1F4
:1005A000080C4FF0010808FA0CF3B1F800C00CEA8F
:1005B00003069E4221D183004FF00F0C0CFA03F783
:1005C000BC4305FA03FC4CEA040491F803C0BCF1F7
:1005D000280F05D100F1080C08FA0CF8C2F81480B5
:1005E00091F803C0BCF1480F07D100F1080C4FF09F
:1005F000010808FA0CF8C2F81080401C0828CED375
:100600005460BDE8F081000010B5FFF707FF014816
:10061000006810BD1400002000BFFEE700BFFEE729
:1006200000B585B00121042000F0D4F84FF400702B
:10063000ADF8100018208DF8130001208DF812007D
:1006400004A91848FFF754FF0121042000F0C2F864
:100650004FF48060ADF8100048208DF813000120A1
:100660008DF8120004A90F48FFF742FF012188030B
:1006700000F0B0F84FF4E13000900020ADF8040035
:10068000ADF80600ADF808000C20ADF80A00694688
:10069000054800F0E5F90121034800F0C7F905B06D
:1006A00000BD000000080140003801402DE9FF5F57
:1006B0000D4616461F46DDF83890022E03DB022F4A
:1006C00006D1012E04DA6FF0010004B0BDE8F09FFE
:1006D0004FF0FF3AFFF7A2FEB9F1000F03DBFFF77F
:1006E00093FF00EB090B002400BF2021009800F0CD
:1006F000A9F901282AD1009800F01EFA00F0FF089D
:100700002046611C8CB205F800802FB9B8F10D0F9E
:1007100002D14FF0000A20E0012F05D1B8F10A0FF5
:1007200002D14FF0000A18E0022C09DBA01E285C61
:100730000D2805D1B8F10A0F02D14FF0000A0CE0E4
:10074000B44202D16FF0010A07E000BFB9F1000F17
:10075000CBDBFFF759FF5845C7D300BFB44203D1E5
:100760000021601E295401E0002028555046ACE7C6
:100770002DE9F04107460E4614460CB9BDE8F0815C
:1007800000250CE000BF8021384600F05BF900280E
:10079000F9D0715D384600F0D4F9681C85B2A542E5
:1007A000F0DB00BF4021384600F04CF90028F9D0BA
:1007B00000BFE3E770B505460C462046FFF7C6FCD0
:1007C00086B2324621462846FFF7D2FF70BD7047F9
:1007D0007047000029B1064A92690243044B9A61AE
:1007E00004E0034A92698243014B9A61704700001A
:1007F0000010024030B500210022002400232D4DBE
:100800006D6805F00C0121B1042905D0082923D118
:1008100005E0294D056022E0274D05601FE0254DCC
:100820006D6805F47012234D6D6805F4803402255F
:1008300005EB92421CB9214D554305600BE01D4D5F
:100840006D6805F400351DB11C4D5543056002E08F
:10085000194D5543056002E0174D056000BF00BF0C
:10086000144D6D6805F0F0010909154D6B5C0568C4
:10087000DD4045600F4D6D6805F4E061090A104DDB
:100880006B5C4568DD4085600A4D6D6805F460511C
:10089000C90A0B4D6B5C4568DD40C560054D6D6850
:1008A00005F44041890B074D6B5CC568B5FBF3F55A
:1008B000056130BD0010024000127A0000093D00C1
:1008C0000000002010000020704710B500F002F872
:1008D00010BD00000CB50020019000903348006866
:1008E00040F480303149086000BF3048006800F4AF
:1008F000003000900198401C0190009818B90198B0
:10090000B0F5A06FF1D12948006800F4003010B1B3
:100910000120009001E0002000900098012843D1C0
:100920002348006840F0100021490860084600682C
:1009300020F0070008600846006840F002000860E8
:100940001A484068194948600846406848600846A7
:10095000406840F4806048600846406820F47C109D
:1009600048600846406840F4E8104860084600685F
:1009700040F08070086000BF0C48006800F0007014
:100980000028F9D00948406820F003000749486072
:100990000846406840F00200486000BF03484068D5
:1009A00000F00C000828F9D10CBD00000010024036
:1009B000002002400448036840685A1C40F10000CF
:1009C00001490A60486070471400002010B51348C0
:1009D000006840F00100114908600846406810496D
:1009E00008400E494860084600680E4908400B4917
:1009F00008600846006820F48020086008464068C7
:100A000020F4FE0048604FF41F008860FFF75DFF90
:100A10004FF000600449086010BD00000010024063
:100A20000000FFF8FFFFF6FE08ED00E021B182892B
:100A300042F40052828104E082894DF6FF731A402D
:100A40008281704702460020B1F5007F00D100BFCF
:100A500013880B400BB1012000E00020704700001C
:100A60002DE9F04786B005460E460024A24600BF99
:100A7000A1460027B08900B100BF2F462C8A4CF652
:100A8000FF700440F08804432C82AC894EF6F310CA
:100A90000440B08831890843718908430443AC811C
:100AA000AC8A4FF6FF400440B0890443AC8201A8F1
:100AB000FFF7A0FE1F48874202D1DDF810A001E039
:100AC000DDF80CA0A88900F4004040B10AEBCA0090
:100AD00000EB0A1031684900B0FBF1F807E00AEBBF
:100AE000CA0000EB0A1031688900B0FBF1F86420FD
:100AF000B8FBF0F004012009642101FB1089A889EA
:100B000000F4004040B1322000EBC900B0FBF1F02E
:100B100000F00700044308E0322000EB09106421D4
:100B2000B0FBF1F000F00F0004432C8106B0BDE8EB
:100B3000F08700000038014001468888C0F30800B3
:100B40007047C1F308028280704700BFFEE702E0F1
:100B500008C8121F08C1002AFAD170477047002048
:100B600001E001C1121F002AFBD170479AB0FFF7C4
:100B700057FD0EE04FF0FF300223642201A90090E0
:100B80000448FFF793FD18B901A90248FFF712FEC8
:100B900000BFEFE700380140B80B0008000000205C
:100BA000200000004E0B0008D80B00082000002099
:100BB000001000005E0B00080000000001020304AA
:100BC00001020304060708090204060800000000E9
:080BD00000000000000000001D
:04000005080000ED02
:00000001FF
