:020000040800F2
:100000006010002005010008BB0B0008BD0A0008B5
:10001000C10A000899070008850F000800000000C9
:10002000000000000000000000000000230E000897
:100030009D070008000000009D0C00080D0F00083F
:100040001F0100081F0100081F0100081F01000810
:100050001F0100081F0100081F0100081F01000800
:100060001F0100081F0100081F0100081F010008F0
:100070001F0100081F0100081F0100081F010008E0
:100080001F0100081F0100081F0100081F010008D0
:100090001F0100081F0100081F0100081F010008C0
:1000A0001F0100081F0100081F0100081F010008B0
:1000B0001F0100081F0100081F0100081F010008A0
:1000C0001F0100081F0100081F0100081F01000890
:1000D0001F0100081F0100081F0100081F01000880
:1000E0001F0100081F0100081F010008DFF810D0E1
:1000F00000F078F900480047E50F0008AFF30080F2
:10010000601000200648804706480047FEE7FEE7EB
:10011000FEE7FEE7FEE7FEE7FEE7FEE7FEE7FEE7B7
:10012000250F0008ED000008D2B201E000F8012B15
:10013000491EFBD270470022F6E710B513460A4667
:1001400004461946FFF7F0FF204610BD2DE9F04D9B
:1001500081EA030404F0004B21F0004514464FF0FF
:10016000000A23F0004150EA050220D054EA0102BF
:100170001DD0C5F30A570246C5F31303C1F313009C
:10018000C1F30A5640F4801543F48013A7EB060828
:10019000101BD64608F2FD3873EB050002D308F1B8
:1001A000010801E092185B41B8F1000F03DA00206A
:1001B0000146BDE8F08D00204FF4801106468446CC
:1001C0000EE0171B73EB050705D3121B63EB05034A
:1001D00006434CEA010C49084FEA300092185B4193
:1001E00050EA0107EDD152EA030012D082EA04007E
:1001F00083EA0501084305D0101BAB4106D201225A
:10020000002306E000224FF0004302E06FF00102FD
:1002100053101AEB06004CEB085110EB0A0041EBAF
:100220000B01BDE8F04D00F07FB80EB540F2334150
:1002300002910021CDE900110A460B4600F083F837
:1002400003B000BD01F0004330B421F0004150EA9A
:10025000010206D00A0DA2F56072C1F31301002A53
:1002600002DC30BC00207047440F44EAC104C100E6
:10027000E01830BC00EBC25000F01FB8202A04DBAD
:10028000203A00FA02F1002070479140C2F12003A9
:1002900020FA03F3194390407047202A04DB203AE8
:1002A00021FA02F00021704721FA02F3D040C2F196
:1002B000200291400843194670470029A8BF7047A3
:1002C000401C490008BF20F00100704710B4B0FA8C
:1002D00080FC00FA0CF050EA010404BF10BC704727
:1002E00049B1CCF1200421FA04F411FA0CF118BF41
:1002F000012121430843A3EB0C01CB1D4FEA006110
:100300004FEA102042BF002010BC704700EBC350E2
:1003100010440029A4BF10BC7047401C490008BF0E
:1003200020F0010010BC704710B5141E73F10004DA
:1003300008DA401C41F1000192185B411A4301D1D7
:1003400020F0010010BD2DE9F04D92469B4611B101
:10035000B1FA81F202E0B0FA80F220329046FFF763
:100360008DFF04460F4640EA0A0041EA0B0153465E
:100370005A46084313D0114653EA010019D0C8F178
:1003800040025046FFF789FF05460E465046594643
:100390004246FFF773FF084305D0012004E02046E2
:1003A0003946BDE8F08D0020054346EAE0762C434F
:1003B00037430A986305E40AA0EB08000022FD0A0F
:1003C00044EA47540A3002D500200146E9E7010516
:1003D00010196941DDE9084500196941BDE8F04D92
:1003E000A2E70000064C074D06E0E06840F001037C
:1003F00094E8070098471034AC42F6D3FFF77AFE32
:1004000024100008441000082DE9F04180460D46F4
:1004100016461F460121404600F0BCFC29784046A4
:1004200000F0D0FC002418E000BF0221404600F09C
:10043000BDFC0028F9D0601C295C404600F0C2FCDD
:1004400000BF0121404600F0B1FC0028F9D0404631
:1004500000F0B5FC3055601C84B2781EA042E3DC8D
:1004600000BF0121404600F0A1FC0028F9D0064859
:1004700000F0A5FCC1B2781E31540021404600F0C6
:1004800089FCBDE8F08100000030014000B589B072
:1004900024216846FFF74FFE064800900120ADF882
:1004A0000400054804906946044800F00BFB09B0BD
:1004B00000BD000000080140A90F00082000002036
:1004C00008B50121102000F0EBFB0122510309487F
:1004D00000F0E6FA14208DF803004FF40050ADF858
:1004E000000002208DF802006946024800F0F2F98F
:1004F00008BD00000010014000B587B0012108468A
:1005000000F0CEFB0121084600F070FA01212E48D0
:1005100000F06CFA0121082000F0C2FB18208DF8D1
:100520001B002820ADF8180002208DF81A0006A93B
:10053000264800F0CFF90121082000F0B1FB482047
:100540008DF81B001020ADF8180006A91F4800F018
:10055000C1F90121042000F0A3FB10208DF81B003D
:10056000C002ADF8180002208DF81A0006A918483C
:1005700000F0B0F90122D103154800F091FA0121F1
:10058000080300F08DFB4FF48270ADF806000020E8
:10059000ADF80400ADF80800ADF80A00ADF80C00A5
:1005A000ADF812002820ADF810004FF40070ADF83F
:1005B0000E0001A9074800F007FC4FF480710548C0
:1005C00000F020FC07B000BD00023000000C01402C
:1005D00000080140003001400EB503208DF80000F6
:1005E00000208DF801008DF802008DF80300002234
:1005F0004FF400410C4800F053FA04236A46694660
:100600000A48FFF701FFFF208DF8000001236A462A
:1006100069460648FFF7F8FE0122D103024800F0C0
:100620003FFA9DF800000EBD000801400030014077
:100630003EB5044606208DF8000000224FF400412C
:10064000534800F02DFA01236A4669465148FFF7E6
:10065000DBFE0122D1034E4800F022FA20208DF863
:10066000000000208DF801008DF802008DF80300D5
:1006700000224FF40041464800F012FA04236A4673
:1006800069464448FFF7C0FE0122D103404800F00C
:1006900007FA22E000224FF400413D4800F000FA42
:1006A00005208DF8000001236A4669463948FFF7A6
:1006B000ABFEFF208DF8000001236A4669463548ED
:1006C000FFF7A2FE0122D103314800F0E9F99DF8BD
:1006D000000000F0010000B900E0DBE700BF0620E9
:1006E0008DF8000000224FF40041294800F0D8F9AD
:1006F00001236A4669462748FFF786FE0122D10397
:10070000234800F0CDF902208DF8000000208DF87C
:1007100001008DF802008DF803008DF804400022DE
:100720004FF400411A4800F0BBF905236A466946B8
:100730001848FFF769FE0122D103154800F0B0F90F
:1007400022E000224FF40041114800F0A9F90520F1
:100750008DF8000001236A4669460E48FFF754FEF3
:10076000FF208DF8000001236A4669460948FFF71B
:100770004BFE0122D103064800F092F99DF80000DB
:1007800000F0010000B900E0DBE700BF3EBD000063
:10079000000801400030014000BFFEE77047000044
:1007A0002DE9F04186B02E480078002855D101206F
:1007B0002B490870142101A8FFF7BDFC4FF0E02081
:1007C000006920F001004FF0E02108610020254978
:1007D000086001A800F074FA4FF0E020006940F0D2
:1007E00002004FF0E021086100211F48C1774FF45B
:1007F0007A710298B0FBF1F4B4F1807F09D3E40878
:100800004FF0E020006920F004004FF0E021086183
:1008100007E04FF0E020006940F004004FF0E021D5
:100820000861601E4FF0E02148610846006940F011
:1008300001000861496921F07F41481CFFF7F5FC80
:1008400007463A460B4600200849FFF77FFC05465D
:10085000FFF7F8FC0649086000BF06B0BDE8F0816C
:10086000180000201400002000ED00E000408F4040
:100870001C00002070B504460D460DB1012000E0BB
:10088000002006460F48844204D13146042000F07F
:1008900007FA16E00C48844204D13146082000F0E3
:1008A000FFF90EE00948844204D13146102000F0DF
:1008B000F7F906E00648844203D13146202000F0D3
:1008C000EFF970BD00080140000C0140001001402C
:1008D000001401402DE9F0410246002500260020C9
:1008E00000230024002791F803C00CF00F0591F8B5
:1008F00003C00CF0100CBCF1000F03D091F802C043
:100900004CEA050591F800C0BCF1000F31D0146825
:1009100000202BE04FF0010C0CFA00F3B1F800C0FE
:100920000CEA03069E4220D183004FF00F0C0CFA14
:1009300003F7BC4305FA03FC4CEA040491F803C036
:10094000BCF1280F06D14FF0010C0CFA00FCC2F8E4
:1009500014C00AE091F803C0BCF1480F05D14FF074
:10096000010C0CFA00FCC2F810C0401C0828D1D3BE
:100970001460B1F800C0BCF1FF0F34DD54680020F2
:100980002EE000F1080C4FF0010808FA0CF3B1F862
:1009900000C00CEA03069E4221D183004FF00F0CE9
:1009A0000CFA03F7BC4305FA03FC4CEA040491F883
:1009B00003C0BCF1280F05D100F1080C08FA0CF8AF
:1009C000C2F8148091F803C0BCF1480F07D100F1C0
:1009D000080C4FF0010808FA0CF8C2F81080401C0F
:1009E0000828CED35460BDE8F0810000F0B50A4677
:1009F000002300240021002500F00046B6F1004F3E
:100A000002D11D4EF16901E01B4E7168C0F3034530
:100A100083B200F44016B6F5401F08D121F0706192
:100A2000154E766826F07066134F7E6012E000F473
:100A30008016B6F5801F06D1032606FA05F4A143F9
:100A400041F0706106E0460D360103FA06F6B14347
:100A500041F0706122B1460D360103FA06F63143CA
:100A600000F00046B6F1004F02D1034EF16101E003
:100A7000014E7160F0BD0000000001400246002000
:100A800093680B400BB1012000E000207047024644
:100A90000020D3680B400BB1012000E0002070471C
:100AA0000AB1016100E041617047000010B5FFF735
:100AB00077FE0148006810BD1400002000BFFEE76B
:100AC00000BFFEE738B504460D4628682060A888B8
:100AD000A080A868A060E868E06028692061686973
:100AE0006061A869A061286A2062E869E06101216B
:100AF0002068FFF7BFFEA088ADF8000048208DF801
:100B0000030069462068FFF7E5FEA06910B94FF4BD
:100B10007A70A061E06908B96420E061206A08B9D0
:100B2000C8202062002004F8240F60706060A0607C
:100B3000E06020742076243C38BD70B50446FFF791
:100B4000B5FF064694F82500F8B1A06A0A30B04215
:100B50002CD8A1882068FFF791FF08B9012000E098
:100B60000020054694F82400A84208D0012D03D1A6
:100B7000204600F06DF802E0204600F073F884F89B
:100B80002450002084F8250010E0A1882068FFF799
:100B900075FF08B9012000E00020054694F8240004
:100BA000A84203D0A662012084F8250094F82410FE
:100BB0003246204600F002F870BD704770B504461A
:100BC0000E46154694F82400012829D194F83400E3
:100BD00098B9E06A20B3E06A281AA16988421FD94F
:100BE000012084F83400606918B194F83400616918
:100BF0008847FFF75BFFA06312E0A06B281AE1694A
:100C000088420DD9FFF752FFA06394F83400401CCE
:100C100084F83400606918B194F834006169884739
:100C200094F83C00002812DD94F8240078B9FFF70E
:100C30003DFF216B401A216A884208D9206918B10A
:100C400094F83C0021698847002084F83C0070BD7E
:100C500010B50446FFF72AFFE062A06808B1A0685B
:100C6000804710BD10B50446FFF720FF2063E06801
:100C700008B1E0688047002084F83400D4E90B1004
:100C8000401AA169884205D294F83C00401C84F8BF
:100C90003C0002E0002084F83C0010BD70470000DA
:100CA00029B1064A92690243044B9A6104E0034A5F
:100CB00092698243014B9A61704700000010024024
:100CC00030B500210022002400232D4D6D6805F071
:100CD0000C0121B1042905D0082923D105E0294DB3
:100CE000056022E0274D05601FE0254D6D6805F485
:100CF0007012234D6D6805F48034022505EB924295
:100D00001CB9214D554305600BE01D4D6D6805F480
:100D100000351DB11C4D5543056002E0194D55438A
:100D2000056002E0174D056000BF00BF144D6D68FF
:100D300005F0F0010909154D6B5C0568DD40456063
:100D40000F4D6D6805F4E061090A104D6B5C456854
:100D5000DD4085600A4D6D6805F46051C90A0B4D90
:100D60006B5C4568DD40C560054D6D6805F440412C
:100D7000890B074D6B5CC568B5FBF3F5056130BDAC
:100D80000010024000127A0000093D00000000201F
:100D90001000002021B1028842F04002028004E0ED
:100DA00002884FF6BF731A40028070470246002047
:100DB00013890B400BB1012000E000207047014671
:100DC000888970478181704710B50022028802F43B
:100DD00041520B884C8823438C882343CC8823437F
:100DE0000C8923434C8923438C892343CC89234397
:100DF0001A430280838B4FF2FF74234083830B8A54
:100E0000038210BD4FF6FF62914204D0028842F483
:100E10008072028004E002884FF6FF631A4002806D
:100E20007047704710B500F001F810BD0CB50020F8
:100E3000019000903348006840F4803031490860E8
:100E400000BF3048006800F4003000900198401C5A
:100E50000190009818B90198B0F5A06FF1D1294818
:100E6000006800F4003010B10120009001E0002083
:100E700000900098012843D12348006840F01000FA
:100E8000214908600846006820F00700086008460D
:100E9000006840F0020008601A484068194948603C
:100EA0000846406848600846406840F480604860F2
:100EB0000846406820F47C1048600846406840F4CA
:100EC000E81048600846006840F08070086000BF85
:100ED0000C48006800F000700028F9D0094840680C
:100EE00020F00300074948600846406840F00200CF
:100EF000486000BF0348406800F00C000828F9D1A2
:100F00000CBD0000001002400020024004480368AD
:100F100040685A1C40F1000001490A60486070476F
:100F20001400002010B51348006840F0010011497A
:100F3000086008464068104908400E494860084665
:100F400000680E4908400B4908600846006820F414
:100F5000802008600846406820F4FE0048604FF496
:100F60001F008860FFF75EFF4FF0006004490860D3
:100F700010BD0000001002400000FFF8FFFFF6FE69
:100F800008ED00E000BFFEE702E008C8121F08C13C
:100F9000002AFAD170477047002001E001C1121FFA
:100FA000002AFBD17047000010B50446012C16D171
:100FB00041030B48FFF76BFD012808D100224103D4
:100FC0000748FFF76DFD0120FFF732FB07E0012224
:100FD00051030348FFF764FD0020FFF729FB10BD14
:100FE00000100140FFF788FAFFF76AFAFFF74EFAA0
:100FF000FFF7F2FA04462CB9012251030748FFF724
:101000004FFD05E000224FF400510448FFF748FD72
:1010100002E00348FFF791FDFBE7000000100140EC
:1010200020000020441000080000002020000000E4
:10103000880F000864100008200000204010000005
:10104000980F0008000000000102030401020304DD
:10105000060708090204060800000000000000005E
:04106000000000008C
:04000005080000ED02
:00000001FF
