:020000040800F2
:1000000010100020050100086104000859040008D0
:100010005D040008F90100087106000800000000F6
:100020000000000000000000000000000D050008B6
:10003000FD01000800000000E9040008F9050008BF
:100040001F0100081F0100081F0100081F01000810
:100050001F0100081F0100081F0100081F01000800
:100060001F0100081F0100081F0100081F010008F0
:100070001F0100081F0100081F0100081F010008E0
:100080001F0100081F0100081F0100081F010008D0
:100090001F0100081F0100081F01000801020008DD
:1000A0001F0100081F0100081F0100081F010008B0
:1000B0001F0100081F0100081F0100081F010008A0
:1000C0001F0100081F0100081F0100081F01000890
:1000D0001F0100081F0100081F0100081F01000880
:1000E0001F0100081F0100081F010008DFF810D0E1
:1000F00000F01AF80048004793060008AFF30080AC
:10010000101000200648804706480047FEE7FEE73B
:10011000FEE7FEE7FEE7FEE7FEE7FEE7FEE7FEE7B7
:1001200011060008ED000008064C074D06E0E068E7
:1001300040F0010394E8070098471034AC42F6D32E
:10014000FFF7D8FFA8060008C80600081FB5012160
:10015000042000F0CBF948208DF80F006020ADF8A6
:100160000C0003A9154800F0E7F80121084600F04B
:10017000BDF90521002000F0BFF80621002000F0A5
:10018000BBF86020019000208DF8080008208DF851
:10019000090001208DF80A0001A800F063F817207B
:1001A0008DF8000000208DF801008DF8020001207C
:1001B0008DF80300684600F055F91FBD00080140A6
:1001C00008B50121102000F091F914208DF80300EA
:1001D0004FF40050ADF8000002208DF8020069468F
:1001E000044800F0A9F801225103024800F02FF959
:1001F00008BD00000010014000BFFEE7704700008E
:1002000010B5202000F022F8012808D1202000F0AD
:1002100017F800224FF40051084800F018F9402068
:1002200000F014F8012807D1402000F009F801225D
:100230005103024800F00BF910BD0000001001400E
:100240000149086070470000140401400146002085
:10025000034A12680A400AB1012000E000207047FA
:1002600014040140002123498279002A3AD00A4629
:10027000126803689A430B461A600A1D12680368E5
:100280009A430B1D1A60027911440A6803681A43E5
:100290000A60184A0832126803689A43154B0833FB
:1002A0001A601A1D126803689A43124B0C331A60C5
:1002B0004279102A0ED11A1F126803681A430D4B97
:1002C00008331A601A1D126803681A43094B0C336D
:1002D0001A600DE00749427911440A6803681A431D
:1002E0000A6005E0027911440A6803689A430A60CB
:1002F000704700000004014030B500228B071C0F3E
:100300000F2303FA04F20B4B8C1053F82430934361
:10031000084C8D1044F8253023468C1053F82430B7
:100320008C07240F00FA04F42343024C8D1044F888
:10033000253030BD080001402DE9F041024600257E
:100340000026002000230024002791F803C00CF0B1
:100350000F0591F803C00CF0100CBCF1000F03D096
:1003600091F802C04CEA050591F800C0BCF1000FFD
:1003700031D0146800202BE04FF0010C0CFA00F390
:10038000B1F800C00CEA03069E4220D183004FF072
:100390000F0C0CFA03F7BC4305FA03FC4CEA040407
:1003A00091F803C0BCF1280F06D14FF0010C0CFAF4
:1003B00000FCC2F814C00AE091F803C0BCF1480F79
:1003C00005D14FF0010C0CFA00FCC2F810C0401C23
:1003D0000828D1D31460B1F800C0BCF1FF0F34DDA0
:1003E000546800202EE000F1080C4FF0010808FAD4
:1003F0000CF3B1F800C00CEA03069E4221D1830041
:100400004FF00F0C0CFA03F7BC4305FA03FC4CEA5F
:10041000040491F803C0BCF1280F05D100F1080CC9
:1004200008FA0CF8C2F8148091F803C0BCF1480F28
:1004300007D100F1080C4FF0010808FA0CF8C2F8D7
:100440001080401C0828CED35460BDE8F0810AB16A
:10045000016100E04161704700BFFEE700BFFEE7B9
:100460007047000070B5002100230F22C47804B348
:10047000154C246804F4E064C4F5E064210AC1F179
:100480000403CA40447804FA03F1847814402143F9
:1004900009010E4C0678A155047804F01F050124CB
:1004A000AC4005786D11AD0005F1E025C5F80041BF
:1004B00009E0047804F01F050124AC40044D0678DF
:1004C000761145F8264070BD0CED00E000E400E038
:1004D00080E100E002490143024A116070470000D8
:1004E0000000FA050CED00E07047000029B1064A53
:1004F00092690243044B9A6104E0034A9269824381
:10050000014B9A617047000000100240704710B51F
:1005100000F002F810BD00000CB500200190009022
:100520003348006840F480303149086000BF3048EB
:10053000006800F4003000900198401C0190009881
:1005400018B90198B0F5A06FF1D12948006800F4FE
:10055000003010B10120009001E0002000900098D0
:10056000012843D12348006840F010002149086069
:100570000846006820F0070008600846006840F060
:10058000020008601A4840681949486008464068F7
:1005900048600846406840F480604860084640680B
:1005A00020F47C1048600846406840F4E810486039
:1005B0000846006840F08070086000BF0C48006882
:1005C00000F000700028F9D00948406820F00300CE
:1005D000074948600846406840F00200486000BF94
:1005E0000348406800F00C000828F9D10CBD000059
:1005F00000100240002002400448036840685A1C72
:1006000040F1000001490A60486070470000002086
:1006100010B51348006840F0010011490860084611
:100620004068104908400E494860084600680E4975
:1006300008400B4908600846006820F480200860E4
:100640000846406820F4FE0048604FF41F008860B0
:10065000FFF75DFF4FF000600449086010BD000027
:10066000001002400000FFF8FFFFF6FE08ED00E07A
:1006700000BFFEE702E008C8121F08C1002AFAD135
:1006800070477047002001E001C1121F002AFBD112
:1006900070474FF4A060FFF71DFFFFF791FDFFF7D4
:1006A00055FD00BFFEE70000C8060008000000205E
:1006B0000C00000074060008D40600080C0000209E
:1006C0000410000084060008000000000000000084
:0406D0000000000026
:04000005080000ED02
:00000001FF
